{
  "_format": "hh-sol-artifact-1",
  "contractName": "CertificateVerification",
  "sourceName": "contracts/CertificateVerification.sol",
  "abi": [
    {
      "inputs": [],
      "stateMutability": "nonpayable",
      "type": "constructor"
    },
    {
      "inputs": [],
      "name": "AccessControlBadConfirmation",
      "type": "error"
    },
    {
      "inputs": [
        {
          "internalType": "address",
          "name": "account",
          "type": "address"
        },
        {
          "internalType": "bytes32",
          "name": "neededRole",
          "type": "bytes32"
        }
      ],
      "name": "AccessControlUnauthorizedAccount",
      "type": "error"
    },
    {
      "inputs": [],
      "name": "ReentrancyGuardReentrantCall",
      "type": "error"
    },
    {
      "anonymous": false,
      "inputs": [
        {
          "indexed": true,
          "internalType": "uint256",
          "name": "certificateId",
          "type": "uint256"
        },
        {
          "indexed": true,
          "internalType": "address",
          "name": "studentAddress",
          "type": "address"
        },
        {
          "indexed": false,
          "internalType": "string",
          "name": "studentId",
          "type": "string"
        },
        {
          "indexed": false,
          "internalType": "string",
          "name": "certificateType",
          "type": "string"
        },
        {
          "indexed": false,
          "internalType": "string",
          "name": "ipfsHash",
          "type": "string"
        },
        {
          "indexed": false,
          "internalType": "address",
          "name": "issuer",
          "type": "address"
        }
      ],
      "name": "CertificateIssued",
      "type": "event"
    },
    {
      "anonymous": false,
      "inputs": [
        {
          "indexed": true,
          "internalType": "uint256",
          "name": "certificateId",
          "type": "uint256"
        },
        {
          "indexed": false,
          "internalType": "address",
          "name": "revokedBy",
          "type": "address"
        },
        {
          "indexed": false,
          "internalType": "string",
          "name": "reason",
          "type": "string"
        }
      ],
      "name": "CertificateRevoked",
      "type": "event"
    },
    {
      "anonymous": false,
      "inputs": [
        {
          "indexed": true,
          "internalType": "address",
          "name": "issuer",
          "type": "address"
        },
        {
          "indexed": false,
          "internalType": "address",
          "name": "addedBy",
          "type": "address"
        }
      ],
      "name": "IssuerAdded",
      "type": "event"
    },
    {
      "anonymous": false,
      "inputs": [
        {
          "indexed": true,
          "internalType": "address",
          "name": "issuer",
          "type": "address"
        },
        {
          "indexed": false,
          "internalType": "address",
          "name": "removedBy",
          "type": "address"
        }
      ],
      "name": "IssuerRemoved",
      "type": "event"
    },
    {
      "anonymous": false,
      "inputs": [
        {
          "indexed": true,
          "internalType": "bytes32",
          "name": "role",
          "type": "bytes32"
        },
        {
          "indexed": true,
          "internalType": "bytes32",
          "name": "previousAdminRole",
          "type": "bytes32"
        },
        {
          "indexed": true,
          "internalType": "bytes32",
          "name": "newAdminRole",
          "type": "bytes32"
        }
      ],
      "name": "RoleAdminChanged",
      "type": "event"
    },
    {
      "anonymous": false,
      "inputs": [
        {
          "indexed": true,
          "internalType": "bytes32",
          "name": "role",
          "type": "bytes32"
        },
        {
          "indexed": true,
          "internalType": "address",
          "name": "account",
          "type": "address"
        },
        {
          "indexed": true,
          "internalType": "address",
          "name": "sender",
          "type": "address"
        }
      ],
      "name": "RoleGranted",
      "type": "event"
    },
    {
      "anonymous": false,
      "inputs": [
        {
          "indexed": true,
          "internalType": "bytes32",
          "name": "role",
          "type": "bytes32"
        },
        {
          "indexed": true,
          "internalType": "address",
          "name": "account",
          "type": "address"
        },
        {
          "indexed": true,
          "internalType": "address",
          "name": "sender",
          "type": "address"
        }
      ],
      "name": "RoleRevoked",
      "type": "event"
    },
    {
      "inputs": [],
      "name": "ADMIN_ROLE",
      "outputs": [
        {
          "internalType": "bytes32",
          "name": "",
          "type": "bytes32"
        }
      ],
      "stateMutability": "view",
      "type": "function"
    },
    {
      "inputs": [],
      "name": "DEFAULT_ADMIN_ROLE",
      "outputs": [
        {
          "internalType": "bytes32",
          "name": "",
          "type": "bytes32"
        }
      ],
      "stateMutability": "view",
      "type": "function"
    },
    {
      "inputs": [],
      "name": "ISSUER_ROLE",
      "outputs": [
        {
          "internalType": "bytes32",
          "name": "",
          "type": "bytes32"
        }
      ],
      "stateMutability": "view",
      "type": "function"
    },
    {
      "inputs": [
        {
          "internalType": "address",
          "name": "issuer",
          "type": "address"
        }
      ],
      "name": "addIssuer",
      "outputs": [],
      "stateMutability": "nonpayable",
      "type": "function"
    },
    {
      "inputs": [
        {
          "internalType": "uint256",
          "name": "certificateId",
          "type": "uint256"
        }
      ],
      "name": "getCertificate",
      "outputs": [
        {
          "components": [
            {
              "internalType": "uint256",
              "name": "id",
              "type": "uint256"
            },
            {
              "internalType": "address",
              "name": "studentAddress",
              "type": "address"
            },
            {
              "internalType": "string",
              "name": "studentId",
              "type": "string"
            },
            {
              "internalType": "string",
              "name": "studentName",
              "type": "string"
            },
            {
              "internalType": "string",
              "name": "certificateType",
              "type": "string"
            },
            {
              "internalType": "string",
              "name": "courseName",
              "type": "string"
            },
            {
              "internalType": "string",
              "name": "grade",
              "type": "string"
            },
            {
              "internalType": "uint256",
              "name": "issueDate",
              "type": "uint256"
            },
            {
              "internalType": "address",
              "name": "issuer",
              "type": "address"
            },
            {
              "internalType": "string",
              "name": "ipfsHash",
              "type": "string"
            },
            {
              "internalType": "bool",
              "name": "revoked",
              "type": "bool"
            },
            {
              "internalType": "uint256",
              "name": "revokedDate",
              "type": "uint256"
            },
            {
              "internalType": "string",
              "name": "revokedReason",
              "type": "string"
            }
          ],
          "internalType": "struct CertificateVerification.Certificate",
          "name": "",
          "type": "tuple"
        }
      ],
      "stateMutability": "view",
      "type": "function"
    },
    {
      "inputs": [
        {
          "internalType": "bytes32",
          "name": "role",
          "type": "bytes32"
        }
      ],
      "name": "getRoleAdmin",
      "outputs": [
        {
          "internalType": "bytes32",
          "name": "",
          "type": "bytes32"
        }
      ],
      "stateMutability": "view",
      "type": "function"
    },
    {
      "inputs": [
        {
          "internalType": "address",
          "name": "studentAddress",
          "type": "address"
        }
      ],
      "name": "getStudentCertificates",
      "outputs": [
        {
          "components": [
            {
              "internalType": "uint256",
              "name": "id",
              "type": "uint256"
            },
            {
              "internalType": "address",
              "name": "studentAddress",
              "type": "address"
            },
            {
              "internalType": "string",
              "name": "studentId",
              "type": "string"
            },
            {
              "internalType": "string",
              "name": "studentName",
              "type": "string"
            },
            {
              "internalType": "string",
              "name": "certificateType",
              "type": "string"
            },
            {
              "internalType": "string",
              "name": "courseName",
              "type": "string"
            },
            {
              "internalType": "string",
              "name": "grade",
              "type": "string"
            },
            {
              "internalType": "uint256",
              "name": "issueDate",
              "type": "uint256"
            },
            {
              "internalType": "address",
              "name": "issuer",
              "type": "address"
            },
            {
              "internalType": "string",
              "name": "ipfsHash",
              "type": "string"
            },
            {
              "internalType": "bool",
              "name": "revoked",
              "type": "bool"
            },
            {
              "internalType": "uint256",
              "name": "revokedDate",
              "type": "uint256"
            },
            {
              "internalType": "string",
              "name": "revokedReason",
              "type": "string"
            }
          ],
          "internalType": "struct CertificateVerification.Certificate[]",
          "name": "",
          "type": "tuple[]"
        }
      ],
      "stateMutability": "view",
      "type": "function"
    },
    {
      "inputs": [],
      "name": "getTotalCertificates",
      "outputs": [
        {
          "internalType": "uint256",
          "name": "",
          "type": "uint256"
        }
      ],
      "stateMutability": "view",
      "type": "function"
    },
    {
      "inputs": [
        {
          "internalType": "bytes32",
          "name": "role",
          "type": "bytes32"
        },
        {
          "internalType": "address",
          "name": "account",
          "type": "address"
        }
      ],
      "name": "grantRole",
      "outputs": [],
      "stateMutability": "nonpayable",
      "type": "function"
    },
    {
      "inputs": [
        {
          "internalType": "bytes32",
          "name": "role",
          "type": "bytes32"
        },
        {
          "internalType": "address",
          "name": "account",
          "type": "address"
        }
      ],
      "name": "hasRole",
      "outputs": [
        {
          "internalType": "bool",
          "name": "",
          "type": "bool"
        }
      ],
      "stateMutability": "view",
      "type": "function"
    },
    {
      "inputs": [
        {
          "internalType": "address",
          "name": "account",
          "type": "address"
        }
      ],
      "name": "isIssuer",
      "outputs": [
        {
          "internalType": "bool",
          "name": "",
          "type": "bool"
        }
      ],
      "stateMutability": "view",
      "type": "function"
    },
    {
      "inputs": [
        {
          "internalType": "address",
          "name": "studentAddress",
          "type": "address"
        },
        {
          "internalType": "string",
          "name": "studentId",
          "type": "string"
        },
        {
          "internalType": "string",
          "name": "studentName",
          "type": "string"
        },
        {
          "internalType": "string",
          "name": "certificateType",
          "type": "string"
        },
        {
          "internalType": "string",
          "name": "courseName",
          "type": "string"
        },
        {
          "internalType": "string",
          "name": "grade",
          "type": "string"
        },
        {
          "internalType": "string",
          "name": "ipfsHash",
          "type": "string"
        }
      ],
      "name": "issueCertificate",
      "outputs": [
        {
          "internalType": "uint256",
          "name": "",
          "type": "uint256"
        }
      ],
      "stateMutability": "nonpayable",
      "type": "function"
    },
    {
      "inputs": [
        {
          "internalType": "address",
          "name": "issuer",
          "type": "address"
        }
      ],
      "name": "removeIssuer",
      "outputs": [],
      "stateMutability": "nonpayable",
      "type": "function"
    },
    {
      "inputs": [
        {
          "internalType": "bytes32",
          "name": "role",
          "type": "bytes32"
        },
        {
          "internalType": "address",
          "name": "callerConfirmation",
          "type": "address"
        }
      ],
      "name": "renounceRole",
      "outputs": [],
      "stateMutability": "nonpayable",
      "type": "function"
    },
    {
      "inputs": [
        {
          "internalType": "uint256",
          "name": "certificateId",
          "type": "uint256"
        },
        {
          "internalType": "string",
          "name": "reason",
          "type": "string"
        }
      ],
      "name": "revokeCertificate",
      "outputs": [],
      "stateMutability": "nonpayable",
      "type": "function"
    },
    {
      "inputs": [
        {
          "internalType": "bytes32",
          "name": "role",
          "type": "bytes32"
        },
        {
          "internalType": "address",
          "name": "account",
          "type": "address"
        }
      ],
      "name": "revokeRole",
      "outputs": [],
      "stateMutability": "nonpayable",
      "type": "function"
    },
    {
      "inputs": [
        {
          "internalType": "bytes4",
          "name": "interfaceId",
          "type": "bytes4"
        }
      ],
      "name": "supportsInterface",
      "outputs": [
        {
          "internalType": "bool",
          "name": "",
          "type": "bool"
        }
      ],
      "stateMutability": "view",
      "type": "function"
    },
    {
      "inputs": [
        {
          "internalType": "uint256",
          "name": "certificateId",
          "type": "uint256"
        }
      ],
      "name": "verifyCertificate",
      "outputs": [
        {
          "internalType": "bool",
          "name": "isValid",
          "type": "bool"
        },
        {
          "components": [
            {
              "internalType": "uint256",
              "name": "id",
              "type": "uint256"
            },
            {
              "internalType": "address",
              "name": "studentAddress",
              "type": "address"
            },
            {
              "internalType": "string",
              "name": "studentId",
              "type": "string"
            },
            {
              "internalType": "string",
              "name": "studentName",
              "type": "string"
            },
            {
              "internalType": "string",
              "name": "certificateType",
              "type": "string"
            },
            {
              "internalType": "string",
              "name": "courseName",
              "type": "string"
            },
            {
              "internalType": "string",
              "name": "grade",
              "type": "string"
            },
            {
              "internalType": "uint256",
              "name": "issueDate",
              "type": "uint256"
            },
            {
              "internalType": "address",
              "name": "issuer",
              "type": "address"
            },
            {
              "internalType": "string",
              "name": "ipfsHash",
              "type": "string"
            },
            {
              "internalType": "bool",
              "name": "revoked",
              "type": "bool"
            },
            {
              "internalType": "uint256",
              "name": "revokedDate",
              "type": "uint256"
            },
            {
              "internalType": "string",
              "name": "revokedReason",
              "type": "string"
            }
          ],
          "internalType": "struct CertificateVerification.Certificate",
          "name": "certificate",
          "type": "tuple"
        }
      ],
      "stateMutability": "view",
      "type": "function"
    }
  ],
  "bytecode": "0x60806040523480156200001157600080fd5b50600180556200002360003362000084565b50620000507fa49807205ce4d355092ef5a8a18f56e8913cf4a201fbe287825b095693c217753362000084565b506200007d7f114e74f6ea3bd819998f78687bfcb11b140da08e9b7d222fa9c1f1ba1f2aa1223362000084565b5062000133565b6000828152602081815260408083206001600160a01b038516845290915281205460ff1662000129576000838152602081815260408083206001600160a01b03861684529091529020805460ff19166001179055620000e03390565b6001600160a01b0316826001600160a01b0316847f2f8788117e7eff1d82e926ec794901d17c78024a50270940304540a733656f0d60405160405180910390a45060016200012d565b5060005b92915050565b61239d80620001436000396000f3fe608060405234801561001057600080fd5b50600436106101165760003560e01c80637843bb79116100a25780639703917811610071578063970391781461025b578063a217fddf1461026e578063b1466d1d14610276578063d547741f14610289578063ebc63bc01461029c57600080fd5b80637843bb791461021857806382aefa2414610220578063877b9a671461023557806391d148541461024857600080fd5b80632f2ff15d116100e95780632f2ff15d146101aa57806336568abe146101bd57806347bc7093146101d057806351640fee146101e357806375b238fc1461020357600080fd5b806301ffc9a71461011b5780631692a9421461014357806320694db014610164578063248a9ca314610179575b600080fd5b61012e610129366004611bcd565b6102bc565b60405190151581526020015b60405180910390f35b610156610151366004611bfe565b6102f3565b60405161013a929190611d93565b610177610172366004611dd2565b6107bb565b005b61019c610187366004611bfe565b60009081526020819052604090206001015490565b60405190815260200161013a565b6101776101b8366004611ded565b61087d565b6101776101cb366004611ded565b6108a8565b6101776101de366004611dd2565b6108e0565b6101f66101f1366004611bfe565b61094b565b60405161013a9190611e19565b61019c60008051602061234883398151915281565b60025461019c565b61019c60008051602061232883398151915281565b61012e610243366004611dd2565b610dff565b61012e610256366004611ded565b610e15565b61019c610269366004611ecf565b610e3e565b61019c600081565b610177610284366004611fd6565b6112a3565b610177610297366004611ded565b61140c565b6102af6102aa366004611dd2565b611431565b60405161013a919061201d565b60006001600160e01b03198216637965db0b60e01b14806102ed57506301ffc9a760e01b6001600160e01b03198316145b92915050565b60006102fd611b51565b60008311801561030f57506002548311155b6103345760405162461bcd60e51b815260040161032b9061207f565b60405180910390fd5b60008381526003602090815260409182902082516101a0810184528154815260018201546001600160a01b031692810192909252600281018054929391929184019161037f906120af565b80601f01602080910402602001604051908101604052809291908181526020018280546103ab906120af565b80156103f85780601f106103cd576101008083540402835291602001916103f8565b820191906000526020600020905b8154815290600101906020018083116103db57829003601f168201915b50505050508152602001600382018054610411906120af565b80601f016020809104026020016040519081016040528092919081815260200182805461043d906120af565b801561048a5780601f1061045f5761010080835404028352916020019161048a565b820191906000526020600020905b81548152906001019060200180831161046d57829003601f168201915b505050505081526020016004820180546104a3906120af565b80601f01602080910402602001604051908101604052809291908181526020018280546104cf906120af565b801561051c5780601f106104f15761010080835404028352916020019161051c565b820191906000526020600020905b8154815290600101906020018083116104ff57829003601f168201915b50505050508152602001600582018054610535906120af565b80601f0160208091040260200160405190810160405280929190818152602001828054610561906120af565b80156105ae5780601f10610583576101008083540402835291602001916105ae565b820191906000526020600020905b81548152906001019060200180831161059157829003601f168201915b505050505081526020016006820180546105c7906120af565b80601f01602080910402602001604051908101604052809291908181526020018280546105f3906120af565b80156106405780601f1061061557610100808354040283529160200191610640565b820191906000526020600020905b81548152906001019060200180831161062357829003601f168201915b50505091835250506007820154602082015260088201546001600160a01b0316604082015260098201805460609092019161067a906120af565b80601f01602080910402602001604051908101604052809291908181526020018280546106a6906120af565b80156106f35780601f106106c8576101008083540402835291602001916106f3565b820191906000526020600020905b8154815290600101906020018083116106d657829003601f168201915b5050509183525050600a82015460ff1615156020820152600b8201546040820152600c82018054606090920191610729906120af565b80601f0160208091040260200160405190810160405280929190818152602001828054610755906120af565b80156107a25780601f10610777576101008083540402835291602001916107a2565b820191906000526020600020905b81548152906001019060200180831161078557829003601f168201915b5050505050815250509050806101400151159150915091565b6000805160206123488339815191526107d3816119e0565b6001600160a01b0382166108225760405162461bcd60e51b8152602060048201526016602482015275496e76616c696420697373756572206164647265737360501b604482015260640161032b565b61083a6000805160206123288339815191528361087d565b6040513381526001600160a01b038316907f81f5a5da0823b41cbf403c631b7efa6c2ec9a7742d7c9cf86de6300fbaf3e00e906020015b60405180910390a25050565b600082815260208190526040902060010154610898816119e0565b6108a283836119ed565b50505050565b6001600160a01b03811633146108d15760405163334bd91960e11b815260040160405180910390fd5b6108db8282611a7f565b505050565b6000805160206123488339815191526108f8816119e0565b6109106000805160206123288339815191528361140c565b6040513381526001600160a01b038316907f8e3ebfd0cec02d186a926ba255288096c940460c4ce14f63974995c0d394b9b490602001610871565b610953611b51565b60008211801561096557506002548211155b6109815760405162461bcd60e51b815260040161032b9061207f565b60008281526003602090815260409182902082516101a0810184528154815260018201546001600160a01b03169281019290925260028101805492939192918401916109cc906120af565b80601f01602080910402602001604051908101604052809291908181526020018280546109f8906120af565b8015610a455780601f10610a1a57610100808354040283529160200191610a45565b820191906000526020600020905b815481529060010190602001808311610a2857829003601f168201915b50505050508152602001600382018054610a5e906120af565b80601f0160208091040260200160405190810160405280929190818152602001828054610a8a906120af565b8015610ad75780601f10610aac57610100808354040283529160200191610ad7565b820191906000526020600020905b815481529060010190602001808311610aba57829003601f168201915b50505050508152602001600482018054610af0906120af565b80601f0160208091040260200160405190810160405280929190818152602001828054610b1c906120af565b8015610b695780601f10610b3e57610100808354040283529160200191610b69565b820191906000526020600020905b815481529060010190602001808311610b4c57829003601f168201915b50505050508152602001600582018054610b82906120af565b80601f0160208091040260200160405190810160405280929190818152602001828054610bae906120af565b8015610bfb5780601f10610bd057610100808354040283529160200191610bfb565b820191906000526020600020905b815481529060010190602001808311610bde57829003601f168201915b50505050508152602001600682018054610c14906120af565b80601f0160208091040260200160405190810160405280929190818152602001828054610c40906120af565b8015610c8d5780601f10610c6257610100808354040283529160200191610c8d565b820191906000526020600020905b815481529060010190602001808311610c7057829003601f168201915b50505091835250506007820154602082015260088201546001600160a01b03166040820152600982018054606090920191610cc7906120af565b80601f0160208091040260200160405190810160405280929190818152602001828054610cf3906120af565b8015610d405780601f10610d1557610100808354040283529160200191610d40565b820191906000526020600020905b815481529060010190602001808311610d2357829003601f168201915b5050509183525050600a82015460ff1615156020820152600b8201546040820152600c82018054606090920191610d76906120af565b80601f0160208091040260200160405190810160405280929190818152602001828054610da2906120af565b8015610def5780601f10610dc457610100808354040283529160200191610def565b820191906000526020600020905b815481529060010190602001808311610dd257829003601f168201915b5050505050815250509050919050565b60006102ed600080516020612328833981519152835b6000918252602082815260408084206001600160a01b0393909316845291905290205460ff1690565b6000600080516020612328833981519152610e58816119e0565b610e60611aea565b6001600160a01b038916610eb65760405162461bcd60e51b815260206004820152601760248201527f496e76616c69642073747564656e742061646472657373000000000000000000604482015260640161032b565b6000885111610efd5760405162461bcd60e51b815260206004820152601360248201527214dd1d59195b9d081251081c995c5d5a5c9959606a1b604482015260640161032b565b6000875111610f465760405162461bcd60e51b815260206004820152601560248201527414dd1d59195b9d081b985b59481c995c5d5a5c9959605a1b604482015260640161032b565b6000865111610f975760405162461bcd60e51b815260206004820152601960248201527f4365727469666963617465207479706520726571756972656400000000000000604482015260640161032b565b6000835111610fdd5760405162461bcd60e51b815260206004820152601260248201527112541194c81a185cda081c995c5d5a5c995960721b604482015260640161032b565b60028054906000610fed836120e9565b9091555050600254604051600090611011908c908c908b908b908a90602001612110565b60408051601f19818403018152918152815160209283012060008181526005909352912054909150156110865760405162461bcd60e51b815260206004820152601a60248201527f436572746966696361746520616c726561647920657869737473000000000000604482015260640161032b565b604080516101a0810182528381526001600160a01b038d811660208084019182528385018f8152606085018f9052608085018e905260a085018d905260c085018c90524260e08601523361010086015261012085018b90526000610140860181905261016086018190528651808401885281815261018087015288815260039092529490208351815590516001820180546001600160a01b0319169190931617909155915190918291600282019061113e90826121da565b506060820151600382019061115390826121da565b506080820151600482019061116890826121da565b5060a0820151600582019061117d90826121da565b5060c0820151600682019061119290826121da565b5060e082015160078201556101008201516008820180546001600160a01b0319166001600160a01b0390921691909117905561012082015160098201906111d990826121da565b50610140820151600a8201805460ff1916911515919091179055610160820151600b820155610180820151600c82019061121390826121da565b5050506001600160a01b038c1660008181526004602090815260408083208054600181018255908452828420018790558583526005909152908190208590555184907f1d8210828da1da54935f7c8883621527f7d40fd0bb1f8a9623f4ae59a0089e8490611288908f908e908c90339061229a565b60405180910390a35050600180559998505050505050505050565b6000805160206123488339815191526112bb816119e0565b6000831180156112cd57506002548311155b6112e95760405162461bcd60e51b815260040161032b9061207f565b6000838152600360205260409020600a015460ff161561134b5760405162461bcd60e51b815260206004820152601b60248201527f436572746966696361746520616c7265616479207265766f6b65640000000000604482015260640161032b565b600082511161139c5760405162461bcd60e51b815260206004820152601a60248201527f5265766f636174696f6e20726561736f6e207265717569726564000000000000604482015260640161032b565b6000838152600360205260409020600a8101805460ff1916600117905542600b820155600c016113cc83826121da565b50827fe30209e229ea01f995092aa4cd5d70b4cd972c12645ab69fa4884bd9882f778f33846040516113ff9291906122ed565b60405180910390a2505050565b600082815260208190526040902060010154611427816119e0565b6108a28383611a7f565b6001600160a01b038116600090815260046020908152604080832080548251818502810185019093528083526060949383018282801561149057602002820191906000526020600020905b81548152602001906001019080831161147c575b505050505090506000815167ffffffffffffffff8111156114b3576114b3611e2c565b6040519080825280602002602001820160405280156114ec57816020015b6114d9611b51565b8152602001906001900390816114d15790505b50905060005b82518110156119d8576003600084838151811061151157611511612311565b60200260200101518152602001908152602001600020604051806101a0016040529081600082015481526020016001820160009054906101000a90046001600160a01b03166001600160a01b03166001600160a01b0316815260200160028201805461157c906120af565b80601f01602080910402602001604051908101604052809291908181526020018280546115a8906120af565b80156115f55780601f106115ca576101008083540402835291602001916115f5565b820191906000526020600020905b8154815290600101906020018083116115d857829003601f168201915b5050505050815260200160038201805461160e906120af565b80601f016020809104026020016040519081016040528092919081815260200182805461163a906120af565b80156116875780601f1061165c57610100808354040283529160200191611687565b820191906000526020600020905b81548152906001019060200180831161166a57829003601f168201915b505050505081526020016004820180546116a0906120af565b80601f01602080910402602001604051908101604052809291908181526020018280546116cc906120af565b80156117195780601f106116ee57610100808354040283529160200191611719565b820191906000526020600020905b8154815290600101906020018083116116fc57829003601f168201915b50505050508152602001600582018054611732906120af565b80601f016020809104026020016040519081016040528092919081815260200182805461175e906120af565b80156117ab5780601f10611780576101008083540402835291602001916117ab565b820191906000526020600020905b81548152906001019060200180831161178e57829003601f168201915b505050505081526020016006820180546117c4906120af565b80601f01602080910402602001604051908101604052809291908181526020018280546117f0906120af565b801561183d5780601f106118125761010080835404028352916020019161183d565b820191906000526020600020905b81548152906001019060200180831161182057829003601f168201915b50505091835250506007820154602082015260088201546001600160a01b03166040820152600982018054606090920191611877906120af565b80601f01602080910402602001604051908101604052809291908181526020018280546118a3906120af565b80156118f05780601f106118c5576101008083540402835291602001916118f0565b820191906000526020600020905b8154815290600101906020018083116118d357829003601f168201915b5050509183525050600a82015460ff1615156020820152600b8201546040820152600c82018054606090920191611926906120af565b80601f0160208091040260200160405190810160405280929190818152602001828054611952906120af565b801561199f5780601f106119745761010080835404028352916020019161199f565b820191906000526020600020905b81548152906001019060200180831161198257829003601f168201915b5050505050815250508282815181106119ba576119ba612311565b602002602001018190525080806119d0906120e9565b9150506114f2565b509392505050565b6119ea8133611b14565b50565b60006119f98383610e15565b611a77576000838152602081815260408083206001600160a01b03861684529091529020805460ff19166001179055611a2f3390565b6001600160a01b0316826001600160a01b0316847f2f8788117e7eff1d82e926ec794901d17c78024a50270940304540a733656f0d60405160405180910390a45060016102ed565b5060006102ed565b6000611a8b8383610e15565b15611a77576000838152602081815260408083206001600160a01b0386168085529252808320805460ff1916905551339286917ff6391f5c32d9c69d2a47ea670b442974b53935d1edc7fd64eb21e047a839171b9190a45060016102ed565b600260015403611b0d57604051633ee5aeb560e01b815260040160405180910390fd5b6002600155565b611b1e8282610e15565b611b4d5760405163e2517d3f60e01b81526001600160a01b03821660048201526024810183905260440161032b565b5050565b604051806101a001604052806000815260200160006001600160a01b0316815260200160608152602001606081526020016060815260200160608152602001606081526020016000815260200160006001600160a01b031681526020016060815260200160001515815260200160008152602001606081525090565b600060208284031215611bdf57600080fd5b81356001600160e01b031981168114611bf757600080fd5b9392505050565b600060208284031215611c1057600080fd5b5035919050565b60005b83811015611c32578181015183820152602001611c1a565b50506000910152565b60008151808452611c53816020860160208601611c17565b601f01601f19169290920160200192915050565b60006101a0825184526020830151611c8a60208601826001600160a01b03169052565b506040830151816040860152611ca282860182611c3b565b91505060608301518482036060860152611cbc8282611c3b565b91505060808301518482036080860152611cd68282611c3b565b91505060a083015184820360a0860152611cf08282611c3b565b91505060c083015184820360c0860152611d0a8282611c3b565b91505060e083015160e085015261010080840151611d32828701826001600160a01b03169052565b50506101208084015185830382870152611d4c8382611c3b565b9250505061014080840151611d648287018215159052565b505061016083810151908501526101808084015185830382870152611d898382611c3b565b9695505050505050565b8215158152604060208201526000611dae6040830184611c67565b949350505050565b80356001600160a01b0381168114611dcd57600080fd5b919050565b600060208284031215611de457600080fd5b611bf782611db6565b60008060408385031215611e0057600080fd5b82359150611e1060208401611db6565b90509250929050565b602081526000611bf76020830184611c67565b634e487b7160e01b600052604160045260246000fd5b600082601f830112611e5357600080fd5b813567ffffffffffffffff80821115611e6e57611e6e611e2c565b604051601f8301601f19908116603f01168101908282118183101715611e9657611e96611e2c565b81604052838152866020858801011115611eaf57600080fd5b836020870160208301376000602085830101528094505050505092915050565b600080600080600080600060e0888a031215611eea57600080fd5b611ef388611db6565b9650602088013567ffffffffffffffff80821115611f1057600080fd5b611f1c8b838c01611e42565b975060408a0135915080821115611f3257600080fd5b611f3e8b838c01611e42565b965060608a0135915080821115611f5457600080fd5b611f608b838c01611e42565b955060808a0135915080821115611f7657600080fd5b611f828b838c01611e42565b945060a08a0135915080821115611f9857600080fd5b611fa48b838c01611e42565b935060c08a0135915080821115611fba57600080fd5b50611fc78a828b01611e42565b91505092959891949750929550565b60008060408385031215611fe957600080fd5b82359150602083013567ffffffffffffffff81111561200757600080fd5b61201385828601611e42565b9150509250929050565b6000602080830181845280855180835260408601915060408160051b870101925083870160005b8281101561207257603f19888603018452612060858351611c67565b94509285019290850190600101612044565b5092979650505050505050565b602080825260169082015275125b9d985b1a590818d95c9d1a599a58d85d1948125160521b604082015260600190565b600181811c908216806120c357607f821691505b6020821081036120e357634e487b7160e01b600052602260045260246000fd5b50919050565b60006001820161210957634e487b7160e01b600052601160045260246000fd5b5060010190565b6bffffffffffffffffffffffff198660601b1681526000855161213a816014850160208a01611c17565b855190830190612151816014840160208a01611c17565b8551910190612167816014840160208901611c17565b845191019061217d816014840160208801611c17565b01601401979650505050505050565b601f8211156108db57600081815260208120601f850160051c810160208610156121b35750805b601f850160051c820191505b818110156121d2578281556001016121bf565b505050505050565b815167ffffffffffffffff8111156121f4576121f4611e2c565b6122088161220284546120af565b8461218c565b602080601f83116001811461223d57600084156122255750858301515b600019600386901b1c1916600185901b1785556121d2565b600085815260208120601f198616915b8281101561226c5788860151825594840194600190910190840161224d565b508582101561228a5787850151600019600388901b60f8161c191681555b5050505050600190811b01905550565b6080815260006122ad6080830187611c3b565b82810360208401526122bf8187611c3b565b905082810360408401526122d38186611c3b565b91505060018060a01b038316606083015295945050505050565b6001600160a01b0383168152604060208201819052600090611dae90830184611c3b565b634e487b7160e01b600052603260045260246000fdfe114e74f6ea3bd819998f78687bfcb11b140da08e9b7d222fa9c1f1ba1f2aa122a49807205ce4d355092ef5a8a18f56e8913cf4a201fbe287825b095693c21775a2646970667358221220b02a55fcb9783ff81d5e5f6a060891fd90593f980bf671313de81f14c4adb98464736f6c63430008140033",
  "linkReferences": {},
  "deployedLinkReferences": {}
}